:100000000C9463000C948B000C948B000C948B006C
:100010000C948B000C948B000C948B000C9450026D
:100020000C948B000C948B000C948B000C948B0024
:100030000C948B000C948B000C948B000C948B0014
:100040000C94A4120C948B000C9414110C94EE10CC
:100050000C948B000C948B000C948B000C948B00F4
:100060000C944B090C948B00000000002300260028
:10007000290000000008000201000003040700003E
:1000800000000000000000000000240027002A00FB
:1000900000000000250028002B00040404040404D0
:1000A0000404020202020202030303030303010227
:1000B00004081020408001020408102001020408F6
:1000C00010204E13331311241FBECFEFD8E0DEBF34
:1000D000CDBF11E0A0E0B1E0E8EFF8E302C0059089
:1000E0000D92A23DB107D9F723E0A2EDB1E001C026
:1000F0001D92AD39B207E1F710E0C2E6D0E004C0CE
:100100002197FE010E94381AC136D107C9F70E9413
:10011000BE130C946F1C0C940000FC01918D228D79
:10012000892F90E0805C9F4F821B91098F739927E4
:10013000089580E090E0892B29F00E9475108111CC
:100140000C9400000895BC016E5F7F4FDC01ED91BF
:10015000FC910190F081E02D40E0099591E0811142
:1001600090E0892F089508954091F801262F30E0FE
:10017000240F311D21323105DCF420919502243009
:10018000C9F4FC0180E090E0861758F43091F80142
:100190002191DC01A852BE4FA30FB11D2C930196F3
:1001A000F3CF8091F801680F6093F80180E0089523
:1001B00081E0089582E00895089508950895E091FA
:1001C0001C0280911B02E81730F4F0E0EB58FD4F61
:1001D000808190E008958FEF9FEF089590911C0229
:1001E00080911B02981750F4E92FF0E0EB58FD4F77
:1001F000208130E09F5F90931C0202C02FEF3FEF01
:10020000C901089580911B0290E020911C02821B7D
:1002100091090895CF92DF92EF92FF920F931F936F
:10022000CF93DF937C01CB018A0120912B02222303
:1002300089F0EB016B01C40ED51ECC15DD0569F00C
:100240006991D701ED91FC910190F081E02DC701FA
:100250000995F3CF642F0E94B400C801DF91CF91BC
:100260001F910F91FF90EF90DF90CF900895CF9363
:10027000DF931F92CDB7DEB7698320912B02222333
:10028000D1F020914E02203240F021E030E0FC011C
:100290003383228380E090E015C080912C02E82F08
:1002A000F0E0E35DFD4F998190838F5F80932C0296
:1002B00080934E0205C061E0CE0101960E94B40019
:1002C00081E090E00F90DF91CF910895089580E054
:1002D00090E008950C94D21B0C94D21B0F931F93A3
:1002E000CF93DF938C01EB0188E2FB0111928A9599
:1002F000E9F74BE050E06EE671E0CE010E94601C31
:100300001B8681E090E0A0E0B0E08C879D87AE87FF
:10031000BF87F80183819481092E000CAA0BBB0BC7
:10032000888B998BAA8BBB8B86E090E0A0E0B0E035
:100330008C8B9D8BAE8BBF8B1CA21DA21EA21FA2FD
:1003400080E090E0A6E9B3E48C8F9D8FAE8FBF8FE5
:1003500080E090E8A9E8B4E4888F998FAA8FBB8FDA
:1003600086EA9BE9A4E4BCE388A399A3AAA3BBA360
:10037000DF91CF911F910F9108950F931F93CF930A
:10038000DF938C01EB0188E2FB0111928A95E9F77A
:100390004BE050E06EE671E0CE010E94601C1B86CF
:1003A00081E090E0A0E0B0E08C879D87AE87BF87BA
:1003B000F80183819481092E000CAA0BBB0B888B5A
:1003C000998BAA8BBB8B8DE090E0A0E0B0E08C8B8A
:1003D0009D8BAE8BBF8B1CA21DA21EA21FA280E014
:1003E00090E0A0E2B2EC8C8F9D8FAE8FBF8F80E04B
:1003F00090E0AAEAB2E4888F998FAA8FBB8F8AE037
:1004000097EDA3E2BCE388A399A3AAA3BBA3DF91C2
:10041000CF911F910F910895FC01848DDF01A80FEA
:10042000B11DA35ABF4F2C91848D90E001968F731C
:100430009927848FA689B7892C93A089B1898C913B
:10044000837080648C93938D848D981306C002888A
:10045000F389E02D80818F7D80830895E0E7F0E0CF
:1004600080818D7F808384E08093B10081E08093E0
:10047000B000E0911F02F09120029081809126024D
:10048000809589238083E0911D02F0911E02908166
:1004900080912502809589238083109226020895F9
:1004A0001F920F920FB60F9211240F931F932F9349
:1004B0003F934F935F936F937F938F939F93AF93EC
:1004C000BF93EF93FF930E9498120091270210911F
:1004D00028022091290230912A02061717072807BF
:1004E000390710F40E942E02E0912302F0912402B9
:1004F00090818091260289278083E0912102F091EA
:10050000220290818091250289278083FF91EF91BB
:10051000BF91AF919F918F917F916F915F914F911B
:100520003F912F911F910F910F900FBE0F901F9031
:1005300018950895089508958EBD00000DB407FE26
:10054000FDCF8EB50895CF92DF92EF92FF920F9379
:100550001F93CF93DF93FC0124892F3F59F4862FFB
:10056000DF91CF911F910F91FF90EF90DF90CF908F
:100570000C949C02062FEC0187E0E82EF12C10E091
:10058000CC24C394D12C110F60E08C890E946F1190
:10059000B6010E2C01C0660F0A94EAF760238A891F
:1005A0000E946F1161E08C890E946F118B890E94FB
:1005B000EF0F892B09F01160F1E0EF1AF10818F73D
:1005C000812FDF91CF911F910F91FF90EF90DF90DE
:1005D000CF9008958CBD9DBD08951F93CF93DF9359
:1005E000EC01162F80E590E00E94EA0260E08E8523
:1005F0000E946F11812F80680E949C0280E00E94FF
:100600009C02182F61E08E850E946F11812FDF916F
:10061000CF911F9108950F931F93CF93DF93EC0118
:10062000062F142F80E590E00E94EA0260E08E859C
:100630000E946F11802F0E949C02812F0E949C02B9
:1006400061E08E85DF91CF911F910F910C946F1116
:10065000AF92BF92CF92EF92FF920F931F93CF93DF
:10066000DF9300D000D01F92CDB7DEB75C0182E0EF
:100670008D8340E064E2C5010E940B0340E066E226
:10068000C5010E940B0346E268E4C5010E940B030A
:1006900086E28B838D81823038F16CE1C5010E9446
:1006A000ED02482F4F776CE1C5010E940B0387E0F4
:1006B0008C83C12CCE0104967C018E010B5F1F4FF1
:1006C0009E012F5F3F4F41E0BE016D5F7F4FC5012F
:1006D0000E94170F81110BC08D81823039F481E0A7
:1006E0009C81911104C008C084E001C081E091E0C8
:1006F000823019F090E001C091E0892F0F900F90A7
:100700000F900F900F90DF91CF911F910F91FF905D
:10071000EF90CF90BF90AF9008952F923F924F925D
:100720005F926F927F928F929F92AF92BF92CF9281
:10073000DF92EF92FF920F931F93CF93DF93CDB78A
:10074000DEB72B970FB6F894DEBF0FBECDBF413595
:1007500008F00AC1342E4B015C016CE10E94ED02ED
:10076000482F4F776CE1C5010E940B03442443944A
:1007700032E0431691F083E04816E1F091E049122F
:10078000F5C083E989833320D1F081E0F4019081C1
:10079000953008F480E0512C17C0F5E9F983332037
:1007A00081F081E0F4019081983008F480E053E01A
:1007B000552E0AC087E9898346E0542E04C0512C87
:1007C00002C033E0532E80E0D32CF8E05F9ED018B7
:1007D0001124D7FCD12C882321F098E89B8333E0A7
:1007E00001C032E021E09D2D977009F420E09D2D9D
:1007F000959595959595290F31F4882309F491C025
:1008000038E0D30E8EC0811102C094E001C093E0A5
:10081000291708F4922FE52DF0E03196E80DF91D27
:10082000232F4191A1E0B0E0AC0FBD1FA20FB11D7D
:100830004C932F5F422F431B491798F3DECF811152
:10084000DDC09FE19D150CF493C080E2D82E90E7A7
:100850009A839B818C8189279D8189279E81892705
:100860008F839E01285F3F4F47E0BE016F5F7F4F40
:10087000C5010E94CB0E8111A2C01A86E3E0EB876E
:10088000CE0107963C0129E0222ECA844C2D4295C8
:10089000407F4C0D6AE1C5010E940B03CE010A9610
:1008A0007C018E01055F1F4F9301422DBE016F5FDA
:1008B0007F4FC5010E94170F182F823009F0BFCF5C
:1008C0006CE1C5010E94ED0285FD98C08F7109F4AD
:1008D00080E2282F30E04D2DDD0C550B42175307D9
:1008E0000CF044C0D82E85958595859591E0980F9C
:1008F000422F477081E009F480E0890FE1E0F0E0E9
:10090000EC0FFD1FE80FF11D21503109277033272F
:1009100081E090E001C0880F2A95EAF79081892B49
:1009200080838FE18D150CF492CF9D2D97709A875F
:100930008D2D8595859585958E5F292FE0E18E9F7C
:10094000200D11242A8321E0911101C020E0222EE4
:10095000280E66246394712C6C0E7D1E680E711C2B
:10096000F9E0F81BFB8791CF16E048C015E046C0C0
:100970008B81883809F43FC082E094E0E52DF0E0F7
:100980003196E80DF91D980FA1E0B0E0AC0FBD1F46
:10099000A80FB11D2C9121938F5F8913F5CF8B8503
:1009A000833029F58A85811122C09E012D5F3F4F3A
:1009B00041E0B301C5010E94CB0E882311F0182F2E
:1009C0001DC09B81F3018181981313C09C8182819A
:1009D00098130FC0808182FF02C04394C9CEF401F6
:1009E0008387842D880F480E4394408207C011E00E
:1009F00005C017E003C083E093E0C0CF812F2B96A2
:100A00000FB6F894DEBF0FBECDBFDF91CF911F911F
:100A10000F91FF90EF90DF90CF90BF90AF909F909D
:100A20008F907F906F905F904F903F902F900895A0
:100A30004F925F926F927F928F929F92AF92BF92EE
:100A4000CF92DF92EF92FF921F93CF93DF93EC014F
:100A5000162F89898F3F09F057C0888591E09093C0
:100A60002B0280934D0210922C0210924E0288812C
:100A70009981DC01ED91FC910190F081E02D0995C7
:100A8000888199810E94050C63E088850E942A0B69
:100A900010921C0280931B0288819981DC01ED91E8
:100AA000FC910284F385E02D09952C01990F6608CD
:100AB0007708762C652C542C442488819981DC019C
:100AC000ED91FC910284F385E02D09956C01990F5D
:100AD000EE08FF08C428D528E628F72888249C2C8F
:100AE000AD2CBE2C88819981DC01ED91FC910284B2
:100AF000F385E02D09956C01990FEE08FF08C828D1
:100B0000D928EA28FB282EC08C898F3F21F482E562
:100B100091E00E94EA0260E089890E946F11612FD2
:100B20006068CE010E94A30260E0CE010E94A30291
:100B3000C82ED12CE12CF12CFE2CED2CDC2CCC245D
:100B400060E0CE010E94A302C82AFE2CED2CDC2C12
:100B5000CC2460E0CE010E94A302C82A61E089890A
:100B60000E946F11C701B601DF91CF911F91FF90D5
:100B7000EF90DF90CF90BF90AF909F908F907F903D
:100B80006F905F904F9008958F929F92AF92BF9217
:100B9000CF92DF92EF92FF920F931F93CF93DF9349
:100BA000EC016AEF0E9418050D891E8920E030E0F3
:100BB000C72ED82EE92EFF24E7FCFA94C01AD10ADA
:100BC000E20AF30ADC01CB0157E0B595A7959795AA
:100BD00087955A95D1F7000F111F221F331F4C0123
:100BE0005D01801A910AA20AB30AA5019401AF8996
:100BF000B88D0E946A184B015C017BE0B594A79404
:100C0000979487947A95D1F7A7019601C701B60109
:100C10000E94DA189B01AC01ECE055954795379599
:100C20002795EA95D1F7A98DBA8D0E946A18DC0143
:100C3000CB01FEE0B595A79597958795FA95D1F7E5
:100C4000A5019401280F391F4A1F5B1F2D873E877E
:100C50004F87588BA5E0B0E00E945F18DC01CB0104
:100C600080589F4FAF4FBF4F692F7A2F8B2F9927F7
:100C700087FD9A950E94471720E030E048EC52E447
:100C80000E943E1ADF91CF911F910F91FF90EF903C
:100C9000DF90CF90BF90AF909F908F9008952F924C
:100CA0003F924F925F926F927F928F929F92AF92FC
:100CB000BF92CF92DF92EF92FF920F931F93CF9349
:100CC000DF93CDB7DEB76F970FB6F894DEBF0FBED8
:100CD000CDBF9A838983798B688B84E2DB011D9277
:100CE0008A95E9F784E290E0A0E0B0E0E889F9892C
:100CF00080839183A283B383A981BA8113968D9156
:100D00009C911497092E000CAA0BBB0B848395832E
:100D1000A683B78386E090E0A0E0B0E0808791876B
:100D2000A287B3870E949812A889B98950966D93BB
:100D30007D938D939C935397E981FA810580F68189
:100D4000E02DFF8FEE8FCF010E94C40567EF8E8DDF
:100D50009F8D0E9418056A8F7B8F8C8F9D8FEE8DE3
:100D6000FF8D85859685A785B0896C017D01FF0C77
:100D7000CC08DC2C76019C01AD016C2D7C2D8C2DDA
:100D80009C2D345F41405109610971098109910924
:100D90002987332E2A013B014C01A22EB32E6A0172
:100DA0007B018C010E94EA18222E3B8B4C8B5D8BC1
:100DB0006E8B7F8B888F998FAE8DBF8D5E963C91A9
:100DC0005E975D962C91932F990F990B492F592F70
:100DD000692F792F892F0E94EA180CE00E94E319ED
:100DE00029833A874B875C876D877E878F879A8BAD
:100DF000EE8DFF8D30A1278D932F990F990BA22C8B
:100E0000BB88CC88DD88EE88FF88088D198D492F36
:100E1000592F692F792F892F0E94EA1808E00E9424
:100E2000FC19A980BA84CB84DC84ED84FE840F8510
:100E30001A890E941A1A70588F4F9F4FAE8DBF8D1E
:100E40005B96ED91FC915C975F01C12CD12CE12C5C
:100E5000F12C8701E983BA82CB82DC82ED82FE82AB
:100E60000F831887C12CD12CE12CF12C00E010E06D
:100E70000E94EA1801E20E94FC1929833A874B87F5
:100E80005C876D877E878F879A8BA0E00E942C1AE3
:100E900009F426C1AE8DBF8D96963C919697959696
:100EA0002C91932F990F990BA22CBB88CC88DD88AD
:100EB000EE88FF88088D198D492F592F692F792FBA
:100EC000892F0E94EA18222E3B8B4C8B5D8B6E8BF8
:100ED0007F8B888F998FEE8DFF8D34A123A1932F67
:100EE000990F990BA984B32C620173018401492FD6
:100EF000592F692F792F892F0E94EA1801E10E944A
:100F0000E319A22CBB88CC88DD88EE88FF88088D89
:100F1000198D0E941A1A59016A017B01382E192F66
:100F20004A8D5B8D6C8D7D8D84E0759567955795A9
:100F300047958A95D1F780E090E0A0E1B0E0841B6E
:100F4000950BA60BB70B2C013D01770C4408542CD4
:100F500032019C01AD01642D742D842D942D0FE17F
:100F60000E94E319722E832E942E652EB62FA72F82
:100F7000582E492EEE8DFF8D32A121A1932F990F6E
:100F8000990B492F592F692F792F892F03E20E943E
:100F9000E319032D0E941A1A59016A017B018C0181
:100FA000272D382D492D562D6B2F7A2F852D942DD9
:100FB0000E94231AE5E3AE2EFCE0BF2EC12CD12CFB
:100FC000E12CF12C00E010E00E94EA18A980BA841C
:100FD000CB84DC84ED84FE840F851A890E94451938
:100FE000298739834A875B876C877D878E879F87B0
:100FF0000DE00E94FC19922E832E742E652E562E23
:10100000472E382E292EAE8DBF8D9C963C919C97F5
:101010009B962C91932F990F990BA92CB82CC72C28
:10102000D62CE52CF42C032D122D492F592F692F86
:10103000792F892F0E94EA180E94EA1809E10E947C
:10104000FC19A984B980CA84DB84EC84FD840E85F4
:101050001F850E941A1A19012A013B014C01EE8DCD
:10106000FF8D32A521A5932F990F990B492F592F49
:10107000692F792F892F0E94EA1803E10E94FC1939
:1010800059016A017B018C019101A201B301C401E4
:101090000E941A1A08E00E94FC1959016A017B019A
:1010A000E82F192FAE8DBF8D98963C919897979603
:1010B0002C91932F990F990B492F592F692F792F25
:1010C000892F04E00E94E3190E2F0E941A1A0E9431
:1010D000E61A20E030E040E85BE30E94821703C09C
:1010E00060E070E0CB0120E030E048EC52E40E9488
:1010F0003E1AE889F989648B758B868B978B81E022
:101100006F960FB6F894DEBF0FBECDBFDF91CF91C3
:101110001F910F91FF90EF90DF90CF90BF90AF9015
:101120009F908F907F906F905F904F903F902F9007
:1011300008950F931F93CF93DF938C01EB0184E20B
:10114000FB0111928A95E9F784E290E0A0E0B0E01B
:1011500088839983AA83BB83F80183819481092EB4
:10116000000CAA0BBB0B8C839D83AE83BF838DE0E9
:1011700090E0A0E0B0E088879987AA87BB870E94AB
:101180009812688B798B8A8B9B8BF801858196816D
:101190000E94C4056C8B7D8B8E8B9F8B81E0DF91D1
:1011A000CF911F910F9108951092950281E0809345
:1011B000740210926F0261E082E10E946F1161E09F
:1011C00083E10E946F11E9EBF0E080818E7F8083E4
:1011D00080818D7F808388E48093B80085E480934C
:1011E000BC000895CF93DF9391E09093D7018823BB
:1011F000B9F0C091B800D091BA008091BC008A7B50
:101200008093BC0060E082E10E946F1160E083E1A6
:101210000E946F110E94D408D093BA00C093B80006
:10122000DF91CF91089585ED8093BC008091970266
:1012300090919802A0919902B0919A020796A11DEF
:10124000B11D23E0B695A795979587952A95D1F777
:101250002091BC0024FF1CC040919702509198023D
:101260006091990270919A02452B462B472B81F38E
:101270000097A105B10541F025E32A95F1F700009B
:101280000197A109B109E4CF809196020C94F2086C
:101290001092950208951F920F920FB60F9211248B
:1012A0002F933F934F935F936F937F938F939F936E
:1012B000AF93BF93EF93FF938091B900887F8036FF
:1012C00009F49CC068F5883209F45BC090F4803161
:1012D00009F454C038F4882309F4F6C0883009F4BE
:1012E0004DC0F6C0883109F44CC0803209F45DC0AD
:1012F000EFC0803409F468C048F4803309F455C065
:10130000883309F0E5C080937302D8C0803509F4B2
:101310004FC0883509F45DC0883409F0D9C0D6C003
:10132000883909F4C7C0A8F4883709F467C038F4CD
:10133000883609F463C0803709F460C0C9C08838B2
:1013400009F4B8C0803909F45FC0803809F0C0C022
:101350005BC0803B09F486C038F4803A09F466C06B
:10136000883A09F47FC0B4C0803C09F4A7C0883C27
:1013700009F4A4C0883B09F48AC0AAC08091700215
:1013800010C09091720280917102981770F5E091EF
:10139000720281E08E0F80937202F0E0E15BFD4FFC
:1013A00080818093BB0085EC86C0809373028EC0E1
:1013B000E091720281E08E0F809372028091BB00F7
:1013C000F0E0E15BFD4F80839091720280917102A9
:1013D0006EC0E091720281E08E0F80937202809164
:1013E000BB00F0E0E15BFD4F8083809174028111CE
:1013F0006DC081E080936F0284EA61C083E08093D6
:10140000950210921A02CFCF80911A02803208F012
:1014100051C0E0911A0281E08E0F80931A028091F0
:10142000BB00F0E0E650FE4F8083BDCF85EC80939B
:10143000BC001092950280911A02803230F4E09143
:101440001A02F0E0E650FE4F108260911A0270E03E
:10145000E0918303F09184038AEF91E00995109263
:101460001A0236C084E0809395021092F90110921E
:10147000F801E0918503F091860309958091F801C8
:10148000811105C081E08093F8011092D801E091AC
:10149000F90181E08E0F8093F901F0E0E852FE4FF0
:1014A00080818093BB009091F9018091F801981799
:1014B00008F479CF85E88093BC000AC085EC80935E
:1014C000BC001092950204C0109273020E9413098E
:1014D000FF91EF91BF91AF919F918F917F916F910C
:1014E0005F914F913F912F910F900FBE0F901F90E2
:1014F0001895CF93CFB7F8948091D601811127C06A
:10150000E4EAF0E08491E8EBF0E09491E82FF0E079
:10151000EE0FFF1FEA57FF4FA591B491EC91E9231D
:1015200021F461E08AE00E946F1161E08AE00E948C
:101530009E118CB580618CBD8CB580648CBD61E0E2
:101540008DE00E949E1161E08BE00E949E118091CF
:10155000D6018F5F8093D601CFBFCF9108950F93AF
:101560001F930E9498120091D2011091D3012091F3
:10157000D4013091D50108571C4E2F4F3F4F6017B3
:10158000710782079307E0F00E9498126093D201DE
:101590007093D3018093D4019093D50188E493E0B4
:1015A0000E94C4050E94B01A653071051CF48FE7D3
:1015B00090E002C08FEF90E09093010180930001D2
:1015C000809100011F910F91089580E480937C0029
:1015D00080917A00806480937A0080917A0086FD01
:1015E000FCCF809178002091790090E0922B0895B3
:1015F000DF92EF92FF920F931F93CF93DF938C01B3
:10160000F62ED42EE52E80E590E00E94EA0260E0FE
:10161000F80186850E946F1182E10E949C02CD2D07
:10162000DE2DCE018F0D911D7C01EC16FD0621F003
:1016300089910E949C02F9CF61E0F80186850E94A1
:101640006F11DF91CF911F910F91FF90EF90DF907D
:101650000C949B028F929F92AF92BF92CF92DF9297
:10166000EF92FF920F931F93CF93DF93F82ED62F15
:10167000613208F0BBC00E9439124B015C01C0917D
:101680009502CC2331F18091970290919802A0911C
:101690009902B0919A02892B8A2B8B2B81F30E949D
:1016A000391200919702109198022091990230917D
:1016B0009A02DC01CB0188199909AA09BB0908170C
:1016C00019072A073B07D8F6809196020E94F20874
:1016D0008DC081E080939502809374029FEF909378
:1016E0007302109272029D0F9093710280937002A8
:1016F000909170028F2D880F892B809370028091BA
:101700006F02813089F510926F020E9439126B01CD
:101710007C01809170028093BB0080919702909130
:101720009802A0919902B0919A02892B8A2B8B2B57
:10173000A9F00E9439128090970290909802A09090
:101740009902B0909A02DC01CB018C199D09AE0977
:10175000BF0988169906AA06BB0690F18091BC00C5
:1017600083FDD7CF85EC01C085EE8093BC000E943D
:1017700039126B017C0180919502813031F58091A5
:10178000970290919802A0919902B0919A02892BA8
:101790008A2B8B2B81F30E943912809097029090B4
:1017A0009802A0909902B0909A02DC01CB018C19AA
:1017B0009D09AE09BF0988169906AA06BB06D8F688
:1017C000809196020E94F20812C0809172028D17D9
:1017D00010F4D0917202EFE4F2E0A5E7B2E0C0E0CD
:1017E000CD1729F081918D93CF5FFACFC0E08C2F78
:1017F000DF91CF911F910F91FF90EF90DF90CF90ED
:10180000BF90AF909F908F9008958F929F92AF92CC
:10181000BF92CF92DF92EF92FF920F931F93CF93DD
:10182000DF9310914E02113208F0C2C0D0914D02E8
:101830000E9439126B017C01C0919502CC2311F1F9
:101840008091970290919802A0919902B0919A028A
:10185000892B8A2B8B2B81F30E943912809097025F
:1018600090909802A0909902B0909A02DC01CB016E
:101870008C199D09AE09BF0988169906AA06BB06F0
:10188000D8F682C082E08093950281E08093740252
:101890008FEF809373021092720210937102ADE287
:1018A000B2E0EFE4F2E080E0181721F09D9191930F
:1018B0008F5FFACF10927002909170028D2F880F77
:1018C000892B8093700280916F02813089F510928C
:1018D0006F020E9439126B017C018091700280932B
:1018E000BB008091970290919802A0919902B091CB
:1018F0009A02892B8A2B8B2BA9F00E943912009116
:101900009702109198022091990230919A02DC017D
:10191000CB018C199D09AE09BF09081719072A07C1
:101920003B0790F18091BC0083FDD7CF85EC01C0CF
:1019300085EE8093BC000E9439126B017C0180917E
:101940009502823039F58091970290919802A0918A
:101950009902B0919A02892B8A2B8B2B81F30E94DA
:1019600039120091970210919802209199023091BA
:101970009A02DC01CB018C199D09AE09BF09081739
:1019800019072A073B07D8F6809196020E94F208B1
:10199000C5E013C0809173028F3F79F0809173028C
:1019A000803241F080917302803331F0C4E005C091
:1019B000C1E003C0C2E001C0C3E010922C0210924B
:1019C0004E0210922B028C2FDF91CF911F910F911D
:1019D000FF90EF90DF90CF90BF90AF909F908F904F
:1019E00008958F929F92AF92BF92EF92FF920F93C2
:1019F0001F93CF939C0140E050E060E074E284EFDD
:101A000090E00E94401849015A0198E0E92E91E0C7
:101A1000F92EC1E0F701219131917F01032E000CD5
:101A2000440B550BC501B4010E94401889019A016D
:101A300001501109210931090F3F11052105310517
:101A400079F074F0CF5FC83029F7CF911F910F91D3
:101A5000FF90EF90BF90AF909F908F900C942E02CC
:101A60008FEF9FEFDC018093270290932802A093D1
:101A70002902B0932A0280912602811152C0EEEA17
:101A8000F0E0649160932602EFEAF0E0E491E093E5
:101A900025024AE950E0FA018491E82FF0E0EE0FC8
:101AA000FF1FE057FF4F85919491909324028093FC
:101AB00023028BE990E0FC017491E72FF0E0EE0F38
:101AC000FF1FE057FF4FA591B491B0932202A0935E
:101AD0002102FA014491E42FF0E0EE0FFF1FEA57D4
:101AE000FF4FA591B491B0932002A0931F02FC0177
:101AF0008491E82FF0E0EE0FFF1FEA57FF4F85912A
:101B0000949190931E0280931D02EC916E2B6C9326
:101B1000E0911D02F0911E02908180912502892B97
:101B200080830093B3008091B20090E0A0E0B0E029
:101B3000081719072A073B0714F40093B200C8607E
:101B4000C093B10083E08093B000809170008D7FDE
:101B500080937000E0912302F091240290818091A3
:101B60002602982380912502E0912102F091220221
:101B7000992321F090818095892302C09081892B3F
:101B8000808380917000826080937000CF911F915C
:101B90000F91FF90EF90BF90AF909F908F9008951E
:101BA000009769F0FC0101900020E9F73197AF013F
:101BB000481B590BBC018BE992E00C94181080E093
:101BC00090E00895CF93DF930E94D00DEC0185E75C
:101BD00091E00E94D00D8C0F9D1FDF91CF91089551
:101BE000CF93DF93C82F809159038F3F09F044C0F2
:101BF0008091500391E090932B0280934D021092BC
:101C00002C0210924E028091480390914903DC010E
:101C1000ED91FC910190F081E02D6C2F0995809160
:101C20004803909149030E94050C62E080915003A3
:101C30000E942A0B10921C0280931B028091480381
:101C400090914903DC01ED91FC910284F385E02D34
:101C50000995C82F8091480390914903DC01ED91CB
:101C6000FC910284F385E02D099520E030E03C2FC3
:101C7000E901C82BD92B2FC080915C038F3F21F441
:101C800082E591E00E94EA0260E0809159030E949F
:101C90006F116C2F606888E493E00E94A30260E0FB
:101CA00088E493E00E94A302C82F60E088E493E0F8
:101CB0000E94A3022C2F30E0322F2227E901C82BEB
:101CC00061E0809159030E946F1180915C038F3F06
:101CD00011F40E949B029C2F8D2FDF91CF910895CC
:101CE000CF93DF93C82FD62F809159038F3F59F59B
:101CF0008091500391E090932B0280934D021092BB
:101D00002C0210924E028091480390914903DC010D
:101D1000ED91FC910190F081E02D6C2F099580915F
:101D2000480390914903DC01ED91FC910190F08111
:101D3000E02D6D2F09958091480390914903DF9123
:101D4000CF910C94050C80915C038F3F21F482E5C8
:101D500091E00E94EA0260E0809159030E946F11B5
:101D60006C2F6F7788E493E00E94A3026D2F88E4C4
:101D700093E00E94A30261E0809159030E946F11D9
:101D800080915C038F3F21F4DF91CF910C949B02F3
:101D9000DF91CF910895CF92DF92EF92FF920F9350
:101DA0001F93CF93DF93EC016B01142F790140E077
:101DB00062E00E940B0344E06AE0CE010E940B0344
:101DC00040E864E1CE010E940B03A601612FCE0121
:101DD0000E94F80A43E062E0CE010E940B0308E88B
:101DE00013E16AE0CE010E94ED0282FF13C040E0E1
:101DF00062E0CE010E940B0364E4CE010E94ED027A
:101E0000F701808362E4CE010E94ED02F701818335
:101E100080E004C00150110921F783E0DF91CF91E8
:101E20001F910F91FF90EF90DF90CF9008957F92D8
:101E30008F929F92AF92BF92CF92DF92EF92FF92DA
:101E40000F931F93CF93DF93EC014B01742E590135
:101E5000E114F10419F0F701408101C040E0D42EF3
:101E6000F0E1CF9ED00C112440E062E0CE010E9450
:101E70000B034FE768E0CE010E940B0340E864E1EA
:101E8000CE010E940B03A401672DCE010E94F80A27
:101E90004D2D6AE1CE010E940B034CE062E0CE01C1
:101EA0000E940B036AE1CE010E94ED02482F4068B8
:101EB0006AE1CE010E940B0380ED882E87E0982E08
:101EC00068E0CE010E94ED02982F907341F480FDEE
:101ED00004C081E0881A910899F783E072C06CE031
:101EE000CE010E94ED02982E837109F069C0A11401
:101EF000B10409F45DC00115110509F459C064E18C
:101F0000CE010E94ED02882EF8018081881508F428
:101F100053C08082882009F441C080E590E00E948F
:101F2000EA0260E08E850E946F11DD24DA94D80CFD
:101F300082E90E949C02CC20A9F00FEF10E001C0C2
:101F4000000FCA94EAF782E90E949C02202F209594
:101F5000F501908192238023092F082B0083882488
:101F6000839401C0812C282D30E08D1450F485011C
:101F7000020F131F82E90E949C02F8018083839460
:101F8000F2CFA20EB31E80E00E949C02F501808376
:101F900061E08E850E946F110E949B0268E1CE0174
:101FA0000E94ED028770E114F10411F0F7018083C3
:101FB00093FC04C080E005C084E003C082E001C05F
:101FC00081E0DF91CF911F910F91FF90EF90DF9013
:101FD000CF90BF90AF909F908F907F900895CF93B8
:101FE000DF93282F30E0F901EE58FF4F8491F9017B
:101FF000E255FF4FD491F901E656FF4FC491CC232F
:1020000091F081110E944611EC2FF0E0EE0FFF1FBE
:10201000E859FF4FA591B491EC91ED2381E090E058
:1020200021F480E002C080E090E0DF91CF9108953C
:10203000CF92DF92EF92FF920F931F93CF93DF9394
:102040006C017A018B01C0E0D0E0CE15DF0581F094
:10205000D8016D918D01D601ED91FC910190F08137
:10206000E02DC6010995892B11F02196EECF7E0156
:10207000C701DF91CF911F910F91FF90EF90DF90FB
:10208000CF900895FC01538D448D252F30E0842F8F
:1020900090E0821B930B541710F0CF960895019790
:1020A0000895FC01918D828D981761F0828DDF017A
:1020B000A80FB11D5D968C91928D9F5F9F73928F3B
:1020C00090E008958FEF9FEF0895FC01918D828D30
:1020D000981731F0828DE80FF11D858D90E00895FD
:1020E0008FEF9FEF08950E945B1C8BE992E00E94A6
:1020F0008D0021E0892B09F420E0822F0895EF92D2
:10210000FF920F931F93CF93DF93EC0181E0888FB1
:102110009B8D8C8D981305C0E889F989808185FD98
:1021200026C0F62E0B8D10E00F5F1F4F0F73112787
:10213000E02E8C8DE8120CC00FB607FCFACFE889B0
:10214000F989808185FFF5CFCE010E940C02F1CF85
:102150008B8DFE01E80FF11DE35AFF4FF0829FB710
:10216000F8940B8FEA89FB89808180620AC09FB74F
:10217000F894EE89FF896083E889F989808183700A
:10218000806480839FBF81E090E0DF91CF911F91B9
:102190000F91FF90EF900895CF93DF93EC01888D1E
:1021A0008823C9F0EA89FB89808185FD05C0A8895B
:1021B000B9898C9186FD0FC00FB607FCF5CF8081E1
:1021C00085FFF2CFA889B9898C9185FFEDCFCE012B
:1021D0000E940C02E7CFDF91CF9108951F920F92DA
:1021E0000FB60F9211242F933F934F935F936F93EA
:1021F0007F938F939F93AF93BF93EF93FF938BE95D
:1022000092E00E940C02FF91EF91BF91AF919F91DC
:102210008F917F916F915F914F913F912F910F908F
:102220000FBE0F901F9018951F920F920FB60F922E
:1022300011242F938F939F93EF93FF93E091AB0221
:10224000F091AC028081E091B102F091B20282FD86
:1022500012C090818091B4028F5F8F732091B5027C
:10226000821751F0E091B402F0E0E556FD4F958FF2
:102270008093B40201C08081FF91EF919F918F9173
:102280002F910F900FBE0F901F901895833081F003
:1022900028F4813099F08230A1F008958730A9F0B8
:1022A0008830B9F08430D1F4809180008F7D03C0F4
:1022B000809180008F7780938000089584B58F7718
:1022C00002C084B58F7D84BD08958091B0008F7762
:1022D00003C08091B0008F7D8093B00008951F935C
:1022E000CF93DF93282F30E0F901EE58FF4F849110
:1022F000F901E255FF4FD491F901E656FF4FC49121
:10230000CC23C1F0162F81110E944611EC2FF0E072
:10231000EE0FFF1FE057FF4FA591B4919FB7F894C0
:10232000111104C08C91D095D82302C0EC91DE2B02
:10233000DC939FBFDF91CF911F910895CF93DF93DF
:1023400090E0FC01E255FF4F2491FC01E656FF4F5F
:102350008491882361F190E0880F991FFC01EA576E
:10236000FF4FC591D491FC01E057FF4FA591B49167
:10237000611109C09FB7F8948881209582238883D2
:10238000EC912E230BC0623061F49FB7F8948881E2
:10239000322F309583238883EC912E2B2C939FBF73
:1023A00006C08FB7F894E8812E2B28838FBFDF916A
:1023B000CF9108951F93CF93DF93182FEB0161E026
:1023C0000E949E11209711F460E004C0CF3FD10518
:1023D00039F461E0812FDF91CF911F910C946F113F
:1023E000E12FF0E0EE58FF4FE491E330F9F048F4CC
:1023F000E130B9F0E230A1F584B5806284BDC8BD9A
:1024000034C0E730E9F0E83019F1E43049F5809163
:102410008000806280938000D0938B00C0938A00FC
:1024200024C084B5806884BDC7BD1FC08091800072
:10243000806880938000D0938900C093880015C085
:102440008091B00080688093B000C093B3000DC04D
:102450008091B00080628093B000C093B40005C04A
:10246000C038D1050CF0B5CFAFCFDF91CF911F9120
:1024700008953FB7F8948091950390919603A091A9
:102480009703B091980326B5A89B05C02F3F19F07C
:102490000196A11DB11D3FBFBA2FA92F982F8827E4
:1024A000820F911DA11DB11DBC01CD0142E0660F3F
:1024B000771F881F991F4A95D1F708958F929F9291
:1024C000AF92BF92CF92DF92EF92FF926B017C01AD
:1024D0000E9439124B015C01C114D104E104F104E2
:1024E000F1F00E943912DC01CB0188199909AA097F
:1024F000BB09883E9340A105B10570F321E0C21AE3
:10250000D108E108F10888EE880E83E0981EA11C2E
:10251000B11CC114D104E104F10419F7DDCFFF901F
:10252000EF90DF90CF90BF90AF909F908F900895E5
:102530002FB7F89460919103709192038091930367
:10254000909194032FBF08951F920F920FB60F9290
:1025500011242F933F938F939F93AF93BF938091B9
:10256000910390919203A0919303B09194033091C1
:10257000900323E0230F2D3720F40196A11DB11DF8
:1025800005C026E8230F0296A11DB11D20939003DC
:102590008093910390939203A0939303B093940339
:1025A0008091950390919603A0919703B091980321
:1025B0000196A11DB11D8093950390939603A0935E
:1025C0009703B0939803BF91AF919F918F913F91E3
:1025D0002F910F900FBE0F901F901895CF92DF9202
:1025E000EF92FF920F931F93E82FF92F05C0015030
:1025F00011092109310961F1908196239417B9F3EA
:1026000005C0015011092109310911F1908196236A
:102610009413F7CFC12CD12CE12CF12C0AC08FEFF1
:10262000C81AD80AE80AF80A0C151D052E053F0538
:1026300079F080818623841791F36C2D7D2D8E2D6A
:102640009F2D1F910F91FF90EF90DF90CF900895F5
:1026500060E070E080E090E01F910F91FF90EF90BC
:10266000DF90CF90089580914C0390914D03009797
:1026700039F0DC01ED91FC910280F381E02D0995A8
:1026800080914E0390914F03009739F0DC01ED915A
:10269000FC910280F381E02D09940895CF93DF939C
:1026A000EBE9F2E01382128288EE93E0A0E0B0E062
:1026B00084839583A683B7832AE131E03183208325
:1026C00025EC30E03587248724EC30E037872687F7
:1026D00020EC30E0318B208B21EC30E0338B228BEF
:1026E00022EC30E0358B248B26EC30E0378B268BC8
:1026F000118E128E138E148EE7E7F3E0138212828E
:1027000084839583A683B7838CE291E09183808351
:10271000C8E4D3E08FEF898B8A8B8B8B8C8BF9830A
:10272000E88387E090E00E943A1BFC0186E591E097
:102730009183808388E191E094838383D683C583EA
:10274000FD83EC8387E090E00E943A1BFC0188E463
:1027500091E09183808314821382D683C583FF83A3
:10276000EE83E8E3F3E08EE391E0918380838AE0F7
:10277000868784E08787DF91CF910895789484B528
:10278000826084BD84B5816084BD85B5826085BD6D
:1027900085B5816085BD80916E00816080936E00FB
:1027A00010928100809181008260809381008091ED
:1027B000810081608093810080918000816080939E
:1027C00080008091B10084608093B1008091B0005E
:1027D00081608093B00080917A00846080937A0059
:1027E00080917A00826080937A0080917A00816083
:1027F00080937A0080917A00806880937A001092AA
:10280000C10060E088E00E949E1161E087E00E94C4
:102810009E1161E085E00E949E1161E086E00E94C9
:102820009E1160E082E00E949E1161E089E00E94BA
:102830009E110E942E02E091AB02F091AC0282E068
:102840008083E091A702F091A8021082E091A90292
:10285000F091AA028FEC80831092B302E091AF0254
:10286000F091B00286E08083E091AD02F091AE027B
:10287000808180618083E091AD02F091AE02808121
:1028800088608083E091AD02F091AE028081806823
:102890008083E091AD02F091AE0280818F7D8083D4
:1028A00087E780935003809159038F3FB9F41092CA
:1028B0001C0210921B0210922C0210924E020E94D7
:1028C000D4088CED90E090938603809385038DED82
:1028D00090E090938403809383031CC061E00E9486
:1028E0006F1161E0809159030E949E1180915C03F9
:1028F0008F3F19F40E94790A0DC061E00E949E1179
:1029000061E080915A030E949E1160E080915B0318
:102910000E949E11809159038F3F99F58091500339
:1029200091E090932B0280934D0210922C02109212
:102930004E028091480390914903DC01ED91FC9196
:102940000190F081E02D60ED099580914803909110
:1029500049030E94050C61E0809150030E942A0BFC
:1029600010921C0280931B028091480390914903AE
:10297000DC01ED91FC910284F385E02D0995C82FCF
:1029800023C080915C038F3F21F482E591E00E9497
:10299000EA0260E0809159030E946F1160ED88E4C3
:1029A00093E00E94A30260E088E493E00E94A30207
:1029B000C82F61E0809159030E946F1180915C03E0
:1029C0008F3F11F40E949B02C83509F051C288E87C
:1029D0000E94F00D90935E0380935D038AE80E944D
:1029E000F00D9093600380935F038CE80E94F00DDC
:1029F00090936203809361038EE80E94F00D9093A0
:102A000064038093630380E90E94F00D9093660352
:102A10008093650382E90E94F00D90936803809390
:102A2000670384E90E94F00D90936A038093690321
:102A300086E90E94F00D90936C0380936B0388E904
:102A40000E94F00D90936E0380936D038AE90E94BB
:102A5000F00D9093700380936F038CE90E94F00D4A
:102A600090937203809371038EE90E94F00D90930E
:102A70007403809373038DEE8093760360917503E6
:102A8000607C6093750367FB662760F985EF0E94A1
:102A9000700E90917603692F6770B0E26B9F900182
:102AA0001124892F8695869586958770E4E08E9F00
:102AB000B0011124622B732B929596959695937085
:102AC000692B84EF0E94700E64E670E080E090E075
:102AD0000E945E120E94790A61E0809146030E9482
:102AE0009E1161E0809146030E946F11809147031F
:102AF0008F3F09F4C2C160E00E949E11809147039C
:102B00000E94EF0F892B09F0B8C161E08091470363
:102B10000E949E1160E0809147030E946F1183E044
:102B200090E00197F1F761E0809147030E946F11F7
:102B300062E370E080E090E00E945E120FC0C1503E
:102B400069F062E370E080E090E00E945E1262E073
:102B500088E393E00E94ED0284FDF1CF40E064E25F
:102B600088E393E00E940B0340E066E288E393E091
:102B70000E940B0346E268E488E393E00E940B03A3
:102B800040E864E588E393E00E940B0349EA66E5C8
:102B900088E393E00E940B0343E068E588E393E059
:102BA0000E940B0348EE6AE588E393E00E940B0362
:102BB00040E46AE288E393E00E940B034DE362E2A3
:102BC00088E393E00E940B0368E288E393E00E94AD
:102BD000ED02982F9370933039F0482F436068E2EC
:102BE00088E393E00E940B0388E791E00E94D00DF8
:102BF00080E293E00E94F10C62E370E080E090E0FC
:102C00000E945E120E942E0262E370E080E090E07B
:102C10000E945E1280E293E00E94F10C62E370E099
:102C200080E090E00E945E120E942E02DD24D39488
:102C3000C6EBD0E042EAE42E40E0F42E5FE0852EC1
:102C4000912CA12CB12C82E00E94EF0F892BA9F4CA
:102C50000E949812009187031091880320918903A4
:102C600030918A0308571C4E2F4F3F4F6017710752
:102C70008207930708F45AC014C080918F038D25F2
:102C800080938F03882319F081E991E002C082EAE2
:102C900091E00E94E20D82E00E94EF0F892BD9F7AC
:102CA000D7CF0E9498126093870370938803809314
:102CB000890390938A030E94E50AC3972CF46FEF6F
:102CC00070E089E00E94DA110E94E50A8F369105D2
:102CD0002CF46AEA70E089E00E94DA110E94E50AA9
:102CE0008D3291402CF46DE770E089E00E94DA119A
:102CF0000E94E50A8F3A91402CF464E670E089E086
:102D00000E94DA110E94E50A8D3B92402CF462E3A6
:102D100070E089E00E94DA110E94E50A8C3B924043
:102D20002CF060E070E089E00E94DA1160E087E05A
:102D30000E946F1165E070E080E090E00E945E12FA
:102D400061E087E00E946F116AE070E080E090E04F
:102D50000E945E1260E087E00E946F11FE016491A4
:102D6000F7018491E82FF0E0EE0FFF1FE859FF4FC5
:102D70008591949100E412E42FE030E0462F0E9408
:102D8000EE12611571058105910539F0DC01CB0169
:102D90000196A11DB11DBF7003C080E090E0DC0171
:102DA000BC01CD0195958795779567950E9447174A
:102DB00021E233E94CE05DE30E9482170E94B01AE1
:102DC000CB01770FAA0BBB0B80938B0390938C03E3
:102DD000A0938D03B0938E030897A105B1059CF0D5
:102DE00080918F03882379F00E94AF0A682F70E0EA
:102DF00086E00E94DA110E94AF0A682F70E085E039
:102E00000E94DA1108C060E086E00E946F1160E065
:102E100085E00E946F1140918B0350918C0360916B
:102E20008D0370918E034531510561057105DCF408
:102E300080918F038823B9F09A01AB0125503109A5
:102E400041095109ACE7BCEF0E946D18A50194013E
:102E50000E944018DA01C90188519C4FAF4FBF4F03
:102E60000E94F10C02C00E942E020E949900EBCE3B
:102E700082EB91E00E94E20D2DCE4FE062E088E30C
:102E800093E00E940B03C3E05CCEE89409C097FB7B
:102E90003EF490958095709561957F4F8F4F9F4F31
:102EA0009923A9F0F92F96E9BB279395F695879575
:102EB00077956795B795F111F8CFFAF4BB0F11F438
:102EC00060FF1BC06F5F7F4F8F4F9F4F16C08823DF
:102ED00011F096E911C0772321F09EE8872F762F15
:102EE00005C0662371F096E8862F70E060E02AF056
:102EF0009A95660F771F881FDAF7880F9695879542
:102F000097F908950E9495170C9406180E94F817D7
:102F100038F00E94FF1720F0952311F00C94EF1762
:102F20000C94F51711240C943A180E94171870F39A
:102F3000959FC1F3950F50E0551F629FF001729F5E
:102F4000BB27F00DB11D639FAA27F00DB11DAA1F6D
:102F5000649F6627B00DA11D661F829F2227B00DBA
:102F6000A11D621F739FB00DA11D621F839FA00D45
:102F7000611D221F749F3327A00D611D231F849F95
:102F8000600D211D822F762F6A2F11249F575040EC
:102F90009AF0F1F088234AF0EE0FFF1FBB1F661F67
:102FA000771F881F91505040A9F79E3F510580F030
:102FB0000C94EF170C943A185F3FE4F3983ED4F367
:102FC000869577956795B795F795E7959F5FC1F7D4
:102FD000FE2B880F911D9695879597F9089597F97F
:102FE0009F6780E870E060E008959FEF80EC0895AF
:102FF00000240A94161617061806090608950024D8
:103000000A9412161306140605060895092E039451
:10301000000C11F4882352F0BB0F40F4BF2B11F4C5
:1030200060FF04C06F5F7F4F8F4F9F4F089557FD24
:103030009058440F551F59F05F3F71F04795880F26
:1030400097FB991F61F09F3F79F0879508951216BD
:1030500013061406551FF2CF4695F1DF08C0161669
:1030600017061806991FF1CF86957105610508941A
:103070000895E894BB2766277727CB0197F9089531
:10308000052E97FB1EF400940E94571857FD07D099
:103090000E94A91807FC03D04EF40C9457185095C1
:1030A0004095309521953F4F4F4F5F4F0895909534
:1030B0008095709561957F4F8F4F9F4F08950E9427
:1030C000CB18A59F900DB49F900DA49F800D911DCE
:1030D00011240895B7FF0C945F180E945F18821B9B
:1030E000930B08952F923F924F925F926F927F922F
:1030F0008F929F92AF92BF92CF92DF92EF92FF9208
:103100000F931F93CF93DF93CDB7DEB7CA1BDB0BB3
:103110000FB6F894DEBF0FBECDBF09942A88398858
:1031200048885F846E847D848C849B84AA84B9845F
:10313000C884DF80EE80FD800C811B81AA81B9816B
:10314000CE0FD11D0FB6F894DEBF0FBECDBFED017F
:103150000895A1E21A2EAA1BBB1BFD010DC0AA1FD8
:10316000BB1FEE1FFF1FA217B307E407F50720F0F0
:10317000A21BB30BE40BF50B661F771F881F991F6B
:103180001A9469F760957095809590959B01AC01B4
:10319000BD01CF010895A29FB001B39FC001A39FBD
:1031A000700D811D1124911DB29F700D811D112480
:1031B000911D0895DB018F939F930E945F18BF912B
:1031C000AF91A29F800D911DA39F900DB29F900D76
:1031D00011240895DF93CF931F930F939A9DF02DA1
:1031E000219FF00D8B9DF00D8A9DE02DF10D039F29
:1031F000F00D029FE00DF11D4E9DE00DF11D5E9D55
:10320000F00D4F9DF00D7F936F93BF92AF925F9340
:103210004F93D5010E94CB188B01AC01D7010E94BE
:10322000CB18EB01E80FF91FD6010E943A192F9134
:103230003F91D6010E94CB18C60FD71FE81FF91F78
:10324000AF91BF910E943A192F913F910E94CB18E4
:10325000C60FD71FE81FF91FD6010E94CB18E60F33
:10326000F71F9801BE01CF0111240F911F91CF913B
:10327000DF9108950E94CB18460F571FC81FD91F12
:1032800008F431960895689401C0E894F92FF12B61
:1032900012F00C947719A0E0B0E0E1E5F9E10C94AC
:1032A0007818092E059422F40E94D319112392F460
:1032B000F0E80F26FFEFE094F09400951095B0949D
:1032C000C094D094A194BF0ACF0ADF0AEF0AFF0A84
:1032D0000F0B1F0B0E94821907FC0E94D319CDB758
:1032E000DEB7ECE00C949418689401C0E8948F92D7
:1032F0009F92CF93DF930E948219DF91CF919F908D
:103300008F90089588249924F401E401B0E49F93F8
:10331000AA279A158B049C04ED05FE05CF05D0075E
:10332000A10798F4AD2FDC2FCF2FFE2FE92D982C7D
:10333000892E982F872F762F652F542F432F322FCA
:103340002227B85031F7BF9127C01B2EBF91BB2752
:10335000220F331F441F551F661F771F881F991F99
:10336000881C991CEE1FFF1FCC1FDD1FAA1FBB1F4F
:103370008A149B04EC05FD05CE05DF05A007B10707
:1033800048F08A189B08EC09FD09CE09DF09A00B5B
:10339000B10B21601A94E1F62EF49401AF01BE0145
:1033A000CD01000C089560957095809590953095AD
:1033B0004095509521953F4F4F4F5F4F6F4F7F4F37
:1033C0008F4F9F4F08950F93083090F0982F872FBD
:1033D000762F652F542F432F322F22270850F4CFFA
:1033E000220F331F441F551F661F771F881F991F09
:1033F0000A95B2F70F91089597FB10F816940008FC
:103400000F93083098F00850232F342F452F562F54
:10341000672F782F892F902DF4CF05949795879556
:103420007795679557954795379527950A95AAF704
:103430000F9108952A0D3B1D4C1D5D1D6E1D7F1DB6
:10344000801F911F08952A193B094C095D096E09D7
:103450007F09800B910B08950024A7FD00942A1783
:1034600030054005500560057005800590050895FC
:10347000EE0FFF1F0590F491E02D09940E94521A5F
:103480000C9406180E94FF1758F00E94F81740F09D
:1034900029F45F3F29F00C94EF1751110C943A185E
:1034A0000C94F5170E94171868F39923B1F355236C
:1034B00091F3951B550BBB27AA2762177307840747
:1034C00038F09F5F5F4F220F331F441FAA1FA9F3DD
:1034D00035D00E2E3AF0E0E832D091505040E695CB
:1034E000001CCAF72BD0FE2F29D0660F771F881F2C
:1034F000BB1F261737074807AB07B0E809F0BB0B1F
:10350000802DBF01FF2793585F4F3AF09E3F510532
:1035100078F00C94EF170C943A185F3FE4F3983E60
:10352000D4F3869577956795B795F7959F5FC9F71B
:10353000880F911D9695879597F90895E1E0660F9C
:10354000771F881FBB1F621773078407BA0720F015
:10355000621B730B840BBA0BEE1F88F7E09508957E
:103560000E94B71A6894B1110C943A1808950E94F9
:103570001F1888F09F5798F0B92F9927B751B0F0CE
:10358000E1F0660F771F881F991F1AF0BA95C9F7E7
:1035900014C0B13091F00E943918B1E008950C9434
:1035A0003918672F782F8827B85F39F0B93FCCF3E7
:1035B000869577956795B395D9F73EF49095809564
:1035C000709561957F4F8F4F9F4F089597FB16F42D
:1035D0000E942A1B0C94ED1AE894F92F96EBFF2316
:1035E00081F0121613061406440B9395F6958795F1
:1035F0007795679557954040FF23B9F71BC09927EA
:103600000895882351F49850D2F7872B762F652F91
:10361000542F432F322F20E0B1F312161306140655
:10362000440B88233AF09A95440F551F661F771F65
:10363000881FCAF755234AF4440F551F11F460FF41
:1036400004C06F5F7F4F8F4F9F4F880F9695879570
:1036500097F908959095809570956095509540954F
:10366000309521953F4F4F4F5F4F6F4F7F4F8F4F9B
:103670009F4F08950F931F93CF93DF93823091054F
:1036800010F482E090E0E0919B03F0919C0320E035
:1036900030E0A0E0B0E0309719F140815181028123
:1036A000138148175907C8F08417950769F41097D4
:1036B00031F012960C93129713961C9327C0009327
:1036C0009B0310939C0322C02115310519F042176A
:1036D000530718F49A01BD01EF01DF01F801DBCFB8
:1036E00021153105F9F0281B390B2430310580F400
:1036F0008A819B816115710521F0FB01938382838F
:1037000004C090939C0380939B03FE01329644C0B7
:10371000FE01E20FF31F8193919322503109398307
:1037200028833AC02091990330919A03232B41F4C6
:10373000209104013091050130939A03209399035D
:1037400020910201309103012115310541F42DB77B
:103750003EB74091060150910701241B350BE091C3
:103760009903F0919A03E217F307A0F42E1B3F0B85
:103770002817390778F0AC014E5F5F4F24173507E3
:1037800048F04E0F5F1F50939A0340939903819323
:10379000919302C0E0E0F0E0CF01DF91CF911F9163
:1037A0000F910895CF93DF93009709F481C0FC0136
:1037B000329713821282A0919B03B0919C031097C1
:1037C00081F420813181820F931F209199033091E0
:1037D0009A032817390751F5F0939A03E093990358
:1037E00067C0ED0120E030E0CE17DF0740F44A81EA
:1037F0005B819E0141155105F1F0EA01F5CFD383BC
:10380000C28340815181840F951FC817D90759F48D
:1038100088819981840F951F0296918380838A8184
:103820009B81938382832115310529F4F0939C03B6
:10383000E0939B033DC0E901FB83EA8349915991E1
:10384000C40FD51FEC17FD0761F480819181840FAF
:10385000951F0296E90199838883828193819B83D6
:103860008A83E0E0F0E012968D919C911397009787
:1038700019F0FD01DC01F7CF8D919C9111979D010D
:103880002E5F3F4F820F931F2091990330919A032F
:103890002817390769F4309729F410929C03109285
:1038A0009B0302C013821282B0939A03A0939903E0
:1038B000DF91CF91089581E090E0F8940C946F1C13
:1038C000FB01DC014150504048F001900D92002076
:1038D000C9F701C01D9241505040E0F7089510E033
:1038E000C2E6D0E004C0FE010E94381A2196C33619
:0838F000D107C9F7F894FFCFDE
:1038F800FF0000009D03200002001000400080002F
:10390800000100020008000000007F10181042109B
:10391800CC108D00511065100000000037010A011D
:103928006701DE000201EE00DF00000000008D03E9
:103938002803A300000000009A026A01B3004F06A2
:103948006E010000000099026C01B3009908BD01E6
:103958000000000000000000B30073107310424D17
:1039680050323830000D0A00576172746520617555
:103978006620417574686F726973696572756E67E0
:10398800004D6F746F72206765737461727465742B
:1039980021004D6F746F7220676573746F70707457
:1039A800210054656D7065726174757273656E730C
:1039B8006F72206E6963687420676566756E6465EA
:0239C8006E008F
:00000001FF
